:10000000FC050020C11A0000C3140000B914000050
:10001000BB140000BD140000BF140000000000006D
:10002000000000000000000000000000C5140000F7
:10003000C114000000000000C7140000E916000011
:10004000C9140000C9140000C9140000C91400003C
:10005000C9140000C9140000C914000005170000ED
:10006000C9140000C9140000C9140000C91400001C
:1000700091150000C9140000C91400004D160000BD
:10008000C9140000C9140000C9140000C9140000FC
:1000900025160000CD140000C9140000C91400008A
:1000A000C9140000C9140000C9140000C9140000DC
:1000B000C9140000C9140000C9140000891600000A
:100400000000000000000000FFFFFFFFBE1BFFFF19
:1004100013B5441EE4B21423634304480068C318B0
:10042000187C00945C680323A04716BDCCFEFF1F18
:1004300008B5044B18701423584300F077FE024BA4
:10044000186008BDC8FEFF1FCCFEFF1F37B5031C98
:100450000D1C0020FF2B0DD0013BDBB214245C43AC
:10046000054909680C19207C0093111C64682A1C3A
:100470000223A0473EBDC046CCFEFF1F13B5441E5D
:10048000E4B21423634304480068C318187C009442
:100490005C680423A04716BDCCFEFF1F421ED2B2EB
:1004A000142313B5534305490968CB18187C002160
:1004B00000925C680A1C0523A04716BDCCFEFF1FF6
:1004C00030B50A4B0A4A1B6814780022A2420BD0AE
:1004D0005D680132854204D11D7C8D4201D1D0B2CC
:1004E00003E0D2B21433F1E7002030BDCCFEFF1F91
:1004F000C8FEFF1FF0B5061C85B0101C01910292CA
:100500000393FFF7DDFF011E01D000203AE0FFF763
:10051000D7FF071EF9D0142545431B4B143D1B681C
:100520005D193388002B13D0039800F0FFFD041CE5
:10053000A8600DD03388181C009300F0F7FD002848
:10054000E3D0009B20606060A060C018E060E382A0
:100550007388002B11D0039800F0E8FD041CE860BC
:100560000BD07688301C00F0E1FD0028CDD0206053
:100570006060A0608019E060E682029B381C6B60BE
:10058000019B2B7405B0F0BDCCFEFF1F07B5002802
:100590000ED0002103280FD1108901AB12681880FA
:1005A00059801178181C054A1823FFF7A3FF04E0AF
:1005B000101C00F0C1FB00E0081C0EBD410700004C
:1005C0002023F7B50E1C141C194203D01370082306
:1005D0009E430134730706D5002804DA2D232370C7
:1005E0004742013400E0071C00232E4D0093002FEA
:1005F00036D0BD4213D9281C0A2101F0FFFA009B16
:10060000051C002B03D10128F3D1730601D530233B
:1006100002E03307EDD5202323700134E9E7002DF4
:1006200001D001230093291C381C01F0E7FA631C58
:100630000193031CC0B26843303323703F1A0A2170
:10064000281C01F0DBFA019C051CD0E7002B0DD023
:10065000281C0A2101F0D2FA30232370051C013432
:10066000201C009B002DF1D1002B0DD1330703D5A9
:100670002023601C237007E0730602D53023601C22
:10068000237030230370013073B2002B04DA0D2382
:1006900003700A234370023010231E4000D10670FD
:1006A000FEBDC04600CA9A3BC9B2031C82189342E1
:1006B00002D019700133FAE7704710B50023934256
:1006C00003D0CC5CC4540133F9E710BDF7B5038AFD
:1006D000041C0E1C4768151C9A4200D91D1CADB2A3
:1006E000002D28D0E3687A1962609A4215D3DB1B8B
:1006F0009BB22268E91A009353186360019100F0DD
:1007000087FF002E12D0391C009A301CFFF7D5FF4E
:10071000009B2168F018019A06E000F079FF002E96
:1007200004D0301C391C2A1CFFF7C7FF00F068FFFB
:10073000238A5B1B238200F06BFF281CFEBD000098
:10074000F8B51D1C06AB1B780F1C1421161C4B435F
:100750000B4A1268D3189C6800F052FF042D03D096
:10076000052D07D1248A06E0201C391C321CFFF716
:10077000ADFF03E0002400F04BFF201CF8BDC04695
:10078000CCFEFF1FF7B5041C151C0F1C00F038FF32
:10079000218A628AE38A88184019984202DD5D1A2C
:1007A000AD1AADB2A168AA18628201914A19E16836
:1007B000A2602E1C8A4205D3D31A2268A3609B1A1A
:1007C000EE1AB6B200F024FF0198391C321CFFF774
:1007D00074FFB54204D0B919AA1B2068FFF76DFF5A
:1007E00000F00EFF638AA28AAB4206D1238AEB187F
:1007F0009A1800232282A38202E0AA18A2825B1B1D
:10080000638200F005FF281CFEBD0000F8B50278E9
:100810004378041C0F1C00259A421ED1867810488C
:10082000311CFFF74DFEA84217D014220D4B504348
:100830001B681818E37814388068032B04D1C58A24
:10084000038AED1AADB208E0211C3A1CFFF79AFFAB
:100850000421051C70B200F093FD281CF8BDC046B1
:1008600041070000CCFEFF1F08B5031E04D1081C81
:10087000111CFFF7CBFF05E00020FF2B02D0181C56
:10088000FFF7C6FD08BD38B5041C031C1A1B013355
:10089000581E057892B2002DF8D1281C002A03D0EA
:1008A000081C211CFFF7E0FF38BD000008B5024B13
:1008B0001978FFF7E8FF08BDC0FEFF1F1FB56A46A5
:1008C000FFF77EFE6846FFF7F1FF05B000BD0000B0
:1008D000F8B50725061C0C1C0D4000D10825301C5E
:1008E000002101F0EDF9002826D0CF21301C0906A7
:1008F00001F0F0F9002804D00421802021430006F3
:100900004DE0301C01F0E6FE071C01F003FF011C66
:10091000301C01F015FA013D03D3224901F03AFCE5
:10092000F9E701F0F5F90421051E01D121432AE080
:100930007F232340194326E09F21301CC90501F085
:10094000DDF9002805D00423211C012099434042F1
:1009500025E0301C01F0DCF9071C01F037FF011C19
:10096000301C01F041FD013D03D30E4901F012FCA2
:10097000F9E701F0CDF9051E03D10423211C9943A9
:1009800001E07B212140381CFFF798FF002D08D0A3
:100990000548FFF78BFF6C23211C9943281CFFF7A8
:1009A0008DFFF8BD00002041AC300000074B1870EF
:1009B000074A107840B20028FADA187819701178CE
:1009C00049B20029FBDA187840B270470660074048
:1009D000006007400000000008B501F09BFE02F037
:1009E00069FA084B064A01F041FF02F0B5FA04210A
:1009F000FFF76EFF0448FFF759FF08BDC046C04629
:100A000085EB51B81E051A40AE300000C046C04606
:100A1000F0B55A4B85B01A68002A04D1012119603B
:100A200059200621A5E0012A70D1554A80256D0084
:100A3000544B156019688022D203534C0A431A6044
:100A400023688027FF003B432360C0224F4B920066
:100A50001A6023688026B60033432360D0224C4BB3
:100A600092001A6023684B4A334323604A4B291C87
:100A70001A602368A022334323600020520000F054
:100A800085FF464B03211A682A431A60444B1A68B3
:100A90002A431A60434B5C221A70434B30221A706F
:100AA000424B3C4A1B78424B1B7823683B432360F4
:100AB000404B1A6023681F433F4B27601A6001AA0E
:100AC00007230024537259239372201C20239580FE
:100AD000D68014720193FFF759FD384E284D3070BF
:100AE000A04203D00521221CFFF7B0FC3278344B22
:100AF00080241A70214A02231360324B64001C6068
:100B00002020AF21FFF752FF2C6034E0022A32D1BF
:100B10002A4D2878FFF7C2FC2B4C002807D02878F4
:100B200001AD291C0A22FFF7A9FC2B78237023783A
:100B30007A2B05D18024234B64001C60AD200EE08D
:100B4000792B05D180241F4B64001C60AB2006E08C
:100B5000782B10D180241B4B64001C60A920FF213E
:100B6000FFF724FFFFF738FF054B59201C600621D3
:100B7000002200F03BFC05B0F0BDC046D0FEFF1FD8
:100B8000040000F8348004403880044000A0044091
:100B90001C900440030300001890044000F00F4034
:100BA00014F00F40036007400160074000600740F9
:100BB000066007400CA0044004A00440ECFFFF1FA7
:100BC000C0FEFF1F080000F8EDFFFF1F38B5051C31
:100BD000242000F0ABFA041E01D100200BE0281CF9
:100BE00000F0A4FA20600028F7D04319A0606060EC
:100BF000E360E582201C38BD38B54D1CEB7F0C1C32
:100C00009A061AD40A8A002A03D140229343EB772A
:100C100013E04B68197800F0D9FDEB7F40221343B5
:100C2000EB776368E26801336360934201D3236822
:100C30006360238A013B238201E000F0E1FD38BDBF
:100C4000F7B5019308AB071C0D1C141C1E7800F0AF
:100C5000D7FC01980238032864D8354B142200F0E1
:100C6000C3FF0237582B142256431B689A19E90414
:100C700001D5D66800E09668002C1BD0E20703D5AA
:100C8000381C00F0FBFD04E0A30702D5381C00F07F
:100C900019FE610703D5381C00F0C2FD04E02207ED
:100CA00002D5381C00F0E0FD630603D57F231D400C
:100CB000B31CDD77B58B36E056431B689A199368F1
:100CC0001C4AD969114201D01D8B2CE01D8A2AE0F3
:100CD00056431B689A19D668002D06D1F28A338ACA
:100CE000D31AA3421FDB9DB21DE000F091FC291C2A
:100CF000221C301CFFF746FD051C00F081FC731C14
:100D0000DA7F60231A420ED1381C311CFFF774FFC2
:100D100009E056431B68291C9A199068221CFFF7AA
:100D2000D5FC03E0002500F073FC281CFEBDC04686
:100D3000CCFEFF1F80800000F7B5294E041C0F1C5D
:100D4000017A301CFFF7BCFB051C0190002D02D07E
:100D50007A0707D442E0291CFFF7B2FB051C019873
:100D6000002D3BD014266E431E4B143E1B689E196B
:100D70001B4B7360BA0709D5237AE0880193FFF70C
:100D800025FF019AF0609300174AD050FB0707D562
:100D9000A088FFF71BFF237A144A9B00D050B06055
:100DA000237A114A9B00D358002B01D02268DA61C4
:100DB000237A0E4A9B00D358002B08D0A27A023324
:100DC000DA77237A094A9B00D3582268DA61237ABA
:100DD000211C3374207A00F07FFD281CFEBDC04624
:100DE000410C0000CCFEFF1FD8FEFF1FD4FEFF1FEA
:100DF00008B5104B8900CB581A8AD98A91420BD971
:100E0000996801321A8208709A68D96801329A602A
:100E10008A4201D31A689A60074AD969114207D1F8
:100E20000233D87F002803D040B2042100F0A8FA92
:100E300008BDC046D4FEFF1F8080000008B5034BEC
:100E40008200D158FFF7D8FE08BDC046D8FEFF1F6C
:100E500008B500F0A5FC08BD08B56C2000F074FAD8
:100E6000002801D100F0B2FD08BD0000F8B53D4BEF
:100E70003D4E1A68041C01321A6033780D1C013390
:100E8000DBB233703B2B4DD9384F3B780133DBB2AB
:100E90003B703B2B39D9364B1A780132D2B2172A24
:100EA00001D81A7024E000221A70324A32481178B0
:100EB00003780131C9B211700133DBB2062B01D9BD
:100EC000073BFAE703701D2907D12C4B197802293B
:100ED00003D10121117003221A702A0708D5E36893
:100EE000002B05D000F08CFBE268904700F090FBEF
:100EF000AB0608D56269002A05D000F081FB636962
:100F0000984700F085FB00233B70AA0708D563686B
:100F1000002B05D000F074FB6268904700F078FB6E
:100F200000233370EB0508D5A268002A05D000F035
:100F300067FBA368984700F06BFBAA0508D52368F8
:100F4000002B05D000F05CFB2268904700F060FBAE
:100F50002369002B05D000F053FB2369984700F06C
:100F600057FBF8BDDCFEFF1FE1FEFF1FE2FEFF1F87
:100F7000E0FEFF1FC2FEFF1FC1FEFF1FC3FEFF1FDB
:100F8000F0B58C46002801D1414B1960414C6246B6
:100F90000423611E89B28D070DD13F4DAA420FD99E
:100FA0003E4E02339219DBB2062B02D80134A4B2B2
:100FB000EFE7073BF7E73A4DAA4204D8002500E0E7
:100FC0000125002408E0374901335218DBB2062B13
:100FD000ECD9073BFAE70224002D0CD0012C0AD1F2
:100FE000314EB24217D9314C1D331219DBB2062BE8
:100FF000F1D9073BFAE72E4E2E4F365D7743BA42C2
:1010000009D9D21BF318DBB2062B01D9073BFAE74B
:101010000134E4B2E0E70134E4B20127254DAA42ED
:1010200009D9254D01375219FFB20133DBB2062B26
:10103000F4D9073BFAE70025204EB24204D9204EEE
:1010400001359219EDB2F7E700263B2A03D90136A4
:101050003C3AF6B2F9E7D2B2002809D08180614665
:101060008471C7710372C2728672457201610DE0AC
:10107000144804701448077014480370144B1A7015
:10108000144B1E70144B1D70144B1980F0BDC046DC
:10109000DCFEFF1FB30700000085E201007B1DFEA0
:1010A0008033E10180CC1EFE803B260080C4D9FF46
:1010B000B13000008051010080AEFEFF0F0E000035
:1010C000F0F1FFFFC3FEFF1FC2FEFF1FC1FEFF1FA7
:1010D000E1FEFF1FE2FEFF1FE0FEFF1FC4FEFF1F39
:1010E0000E4B13B500221A800D4B0E4A19600E4BA1
:1010F000147819601A1C0378A34203D0002B0CD07B
:101100000430F8E74388C91811606B4607339942E9
:1011100003D855230B700131F7E713BDE8FEFF1F1D
:10112000E4FEFF1FC6FEFF1FECFEFF1FF8B50E4FCB
:101130000E4E3B683488051C1C1903231C4201D049
:101140009C4304340A4A631912689A420AD92A1C39
:10115000201C0021FFF7A8FA3B68201CE31AED18B9
:10116000358000E00020F8BDE4FEFF1FE8FEFF1F11
:10117000ECFEFF1FF0B585B00392544F544A002394
:1011800013603B60534B02901B780C1C2678002E9A
:1011900044D09E423BD1231CE51A00260134A657B9
:1011A000EDB2002EF8D1142068430430FFF7BEFFE3
:1011B000EB43E31838600193371C019C6278002AE6
:1011C00023D0029B196800291BD00C78A24216D1AB
:1011D0005A68016042601A890281002A01D00136F2
:1011E000F6B2598941819A8982819B7BC373002918
:1011F00001D1002A01D00137FFB2143001E01033D1
:10120000E0E7019B01330193D7E7026008E0013476
:101210000022A256002AFAD10134B7E7371C351C48
:101220002A4C2368002B49D0002F2CD00C20784367
:10123000043080B2FFF77AFF254A23681060944695
:101240001A68002A1AD05A89002A07D022498A42ED
:1012500001D100225A815A89426003E0998900290C
:1012600001D0416001224168002901D00121417271
:10127000002A01D003600C301433E1E70C235F43F4
:101280006346C01B186003997018C0B2FFF7D0F80E
:10129000002E13D024682268002A0FD02389002B47
:1012A0000AD003200121221CFFF770F9002801D089
:1012B000A07301E0FF23A3731434ECE7074B002273
:1012C0001A6000F053FA281C05B0F0BDF0FEFF1FB5
:1012D000F8FEFF1FC6FEFF1FFFFF0000F4FEFF1F0A
:1012E000184B37B51C682368002B29D0E27B0D23EF
:1012F0001A4223D000F084F9A389002B02D1E37BAA
:10130000D90716D4237C002B0ED000256A46157011
:1013100055702168281C0A7869468A700522CD70AC
:101320000B71FFF7A1FA2574E27B0A23134000D169
:10133000E37300F06DF9201C626890471434D2E723
:1013400037BDC046F0FEFF1F38B50C4B051C1C68AE
:1013500000F056F92368002B0DD0E17B0D221142DD
:1013600007D01B785BB2AB4203D000F051F90120EB
:1013700002E01434EEE7181C38BDC046F0FEFF1F33
:1013800038B5174B1C682368002B27D01B785BB23D
:10139000834221D1002918D1124B1D68002D14D091
:1013A0002B68002B11D09C420DD100F029F9A389A4
:1013B000002B03D00C4A12689B186B600023E37368
:1013C00000F026F90AE00C35EAE74A0702D5E37B8C
:1013D0001A0703D4E17301E01434D4E738BDC046E2
:1013E000F0FEFF1FF8FEFF1FF4FEFF1FF8B5194BBC
:1013F0000E1C1C68171C002C2BD0174B1D682B686B
:10140000002B26D01B785BB2834220D12368002BAF
:101410001FD09D4219D100F0F3F8EB7B02229343D9
:10142000EB732772002F04D1AE81002E04D16672B7
:1014300008E0002E00D10126084B1B68F618012396
:101440006660637200F0E4F803E00C34DEE7143504
:10145000D5E7F8BDF8FEFF1FF0FEFF1FF4FEFF1FEB
:10146000134A144B11681B68013110B5101C116030
:10147000002B1CD01A68002A19D0597A002914D0E0
:1014800001685C68A14210D1D17B8C0705D40C07A0
:1014900001D40421D173197A11749289002A03D0DE
:1014A00059688A185A6000E05A720C33E2E710BD9E
:1014B000F4FEFF1FF8FEFF1F70477047704770472C
:1014C0007047704770477047704700000C4A10B56E
:1014D00013680C4C002B0AD0013B1360002B06D183
:1014E0002368DA0703D5802292001343236006485D
:1014F0002168FFF7BBFC2268044B1340236010BD3A
:1015000000FFFF1FFCFEFF1F50FFFF1FFFFCFFFF40
:1015100010B51B4A1378980604D51A4B05201B7882
:1015200059062BD4184B01201B68590726D5154B9B
:1015300047211C7802200C4220D01178880604D55F
:10154000197807200140022918D01278012091074C
:1015500014D51A7807231340042B0FD10B4B1A789C
:1015600003231340834208D0002B04D00A20032B0E
:1015700004D0012002E0082000E0092010BDC04690
:1015800000E0074001E0074010ED00E002E0074006
:1015900070B5154D154C2B6822681A4091020BD579
:1015A000134A144E1078336800211840FFF720FCCE
:1015B0002B681A0300D5326822681340190202D53D
:1015C0000020FFF73BFC2A682168084B0A405102C3
:1015D00008D51968084A0A401A60084B01221968A0
:1015E0009143196070BDC046044005400840054065
:1015F00068FFFF1F0C400540FFFFBFFF08FFFF1FF4
:1016000072B6024B1A6801321A6070474CFFFF1F16
:10161000034A1368013B1360002B00D162B6704788
:101620004CFFFF1F10B5074B074C00221A60A36840
:10163000934205D0FFF7E4FFA3689847FFF7E8FF60
:1016400010BDC04608D0034050FFFF1F0B4B37B5FD
:101650001F221A600A4B1D68002D0DD0094B01ACEA
:101660001B6823800023A3700123E370FFF7C8FFEA
:10167000201CA847FFF7CCFF37BDC04600B0034091
:1016800004FFFF1F10B00340F7B5134B1C681F1C6D
:10169000002C1FD0114E1C6001252C4215D0326841
:1016A0000192FFF7ADFF0E4B0E4A9B199B181B686A
:1016B0009847019BB02212031A4080231B039A42D1
:1016C00000D13D60AC43FFF7A3FF6D000436002C52
:1016D000E3D1DAE7F7BDC046A0A0044000A0044073
:1016E0006CFFFF1F0060FBBF08B58022044B920413
:1016F0001A60FFF785FFFFF7B3FEFFF789FF08BD0C
:1017000004ED00E0F8B5164B1C78E4B2002C26D0AE
:101710000026012525421DD0AC43072E0EDD331CCB
:10172000083B01229A40012A04D0202A08D1FFF761
:1017300079FF05E00B4B1A681A6001E0084B1D7039
:10174000094BB200D758002F04D0FFF759FFB84714
:10175000FFF75EFF6D000136EDB2002CDAD1F8BD67
:1017600003C00740000004400CFFFF1F074B084A5E
:101770001360084A1360084BC022196812060A4316
:101780001A60064B07221A607047C046FF9E24006D
:1017900014E000E018E000E020ED00E010E000E0E0
:1017A000074B1A680C231A4204D0064B55221A60C4
:1017B000AA221A60044B802212011A607047C046A8
:1017C00000810440048104404C0000F80A4B30B50D
:1017D00080245D682404012225420AD0074D8240FE
:1017E000286802432A605A68D9609A6814439C604A
:1017F0000022101C30BDC0460040054008FFFF1FFE
:10180000054B80229968D2030A439A609968034A7B
:101810000A409A607047C04600400540FFFF7FFFC6
:1018200000280ED10A4B80221968D2000A431A60A0
:10183000084A094B1A60094B80221A70084B520162
:101840001A60084B8022996812030A439A60704715
:1018500038800440030300000CA004400CE400E0C6
:1018600000E100E000400540024B034A99680A404D
:101870009A60704700400540FFFF77FF00280ED1B7
:101880000A4B80221968D2000A431A60084A094BA1
:101890001A60094B80221A70084B52011A60084BDB
:1018A0009022996892030A439A60704738800440F6
:1018B0000303000004A004400CE400E000E100E0A9
:1018C00000400540024B034A99680A409A607047FD
:1018D00000400540FFFFDBFF70B50D1C002846D11E
:1018E000234B8022196852030A431A60214B80223D
:1018F000197852420A431A701F4B204A18688021F7
:101900000240C9040A431A606A7A9C230C2A02D84E
:101910001B4B5200D35A1B4C2268510BF022490337
:1019200012050A4313432360FFF76AFEA268C0232F
:101930001B0413402A681449D00701D57F2000E01A
:10194000FF20087006210A4205D0510701D5032265
:1019500000E002221343A360FFF75AFE2B68094EF2
:10196000DA0604D5306880239B010343336070BDE1
:10197000388004401840064004800440FFFFFFF315
:10198000503100000040054068FFFF1F0C4B30B590
:10199000C0180003002A03DA0A4B03241A4000E0AF
:1019A000094C0123002909D0194204D00568994344
:1019B000A5431543056004305B00F3E730BDC04626
:1019C000490004008BF8FF7F77070000F8B51A4C38
:1019D00004232668194D1E4218D0194A1268002A9D
:1019E00011D12A68D00211D5164A80211068C90584
:1019F00001431160144980200F68C001384308601A
:101A00001268D00102D522689A43226030BFFFF7E6
:101A10007FFD072804DD0D4B00201968FFF7B0FAA1
:101A200026602B68D90204D5074B094A1F683A4043
:101A30001A60FFF7EDFDF8BD10ED00E038800440BE
:101A400008FFFF1F044005400040054000D0034050
:101A5000FFBFFFFF10B5124A12490023891A8B42BB
:101A600004D01148C05CD0540133F8E70F49104A44
:101A7000914204D10F4A10490023891A08E00F4807
:101A80000023801A8342F5D0CC5CD4540133F9E7AB
:101A90008B4204D0D018002404700133F8E710BD45
:101AA000C0FEFF1FC7FEFF1FEC3100001004000046
:101AB00010040000C8FEFF1FB0000020AC30000082
:101AC000304A38B511688023DB000B4313602E4B7E
:101AD000212019681D1C814319602C482C492D4B6D
:101AE00008602D4908680121014000D00C211960CF
:101AF0002A4B0821197011688023DB000B438024D6
:101B0000136024010120A222211C8240FFF73EFF26
:101B1000234B1A6822431A602B6804221C43214B72
:101B20002C601A70204BA02219780A431A701F4BA0
:101B300000221A701E4B1A780C231A42FAD11D4B40
:101B4000802252021A601C4A1C4B1A60FFF782FF67
:101B50001B4B2A221A701B4B1B4A13601B4A136033
:101B60001B4B1A6805221A6000F03CF819481A4904
:101B7000FFF7B6FA19481A490122FFF7FBFAFFF7F7
:101B8000AFFBFCE73880044054F00F400301210014
:101B900080A004400081044050F00F4002D0074074
:101BA00040F00F4001400640005006400040064013
:101BB00006400640448004400000000008ED00E0BC
:101BC00000E00740FFFFFF0014E000E018E000E045
:101BD00010E000E0BE300000B0000020D030000077
:101BE000C63000007047000002B471464908490041
:101BF000095C49008E4402BC7047C046002934D0BD
:101C00000123002210B488422CD301242407A142CE
:101C100004D2814202D209011B01F8E7E400A1428B
:101C200004D2814202D249005B00F8E7884201D326
:101C3000401A1A434C08A04202D3001B5C082243FE
:101C40008C08A04202D3001B9C082243CC08A0426F
:101C500002D3001BDC082243002803D01B0901D05B
:101C60000909E3E7101C10BC7047002801D00020D0
:101C7000C04307B4024802A14018029003BDC04609
:101C8000190000000029F0D003B5FFF7B9FF0EBC22
:101C90004243891A1847C0467047C0468446081C0C
:101CA0006146FFE71FB500F029FA002801D40021A2
:101CB000C8421FBD10B500F0AFF94042013010BD61
:101CC00010B500F01BFA002801DB002010BD012038
:101CD00010BDC04610B500F011FA002801DD00204B
:101CE00010BD012010BDC04610B500F0BFF900289E
:101CF00001DC002010BD012010BDC04610B500F071
:101D0000B5F9002801DA002010BD012010BDC04641
:101D10009E2110B5C905041CFFF7F0FF002803D170
:101D2000201C00F0D7FC10BD9E21C905201C00F02E
:101D30005BFB00F0CFFC80231B06C018F3E7C04616
:101D4000F8B543024400C50F4E024800240E2A1C79
:101D50009B09000EC90FB6098D425BD0221A002ADA
:101D600000DC89E000281DD1002E00D075E0580766
:101D700004D00F221A40042A00D004338021C90461
:101D800019402A1C00293AD00134FF2C00D17FE0F1
:101D90009B015B0A5B02E4B2E405580AD2072043C8
:101DA0001043F8BDFF2CE2D08021C9040E431B2A4A
:101DB00000DD2DE1311C2020D140821A9640721E98
:101DC00096410E439B1B5801D1D59B019F09381C9E
:101DD00001F04EF9421F974094425BDC141B1F2315
:101DE0001B1B3A1C9F40611C3B1CCA405F1EBB4131
:101DF00013430024BBE7131EB9D100230022DB08E4
:101E0000FF2C04D1002B43D08020C00303435B028E
:101E10005B0ABFE7211A002940DD002823D0FF2CF0
:101E2000A5D08020C00406431B2900DDEEE0301C55
:101E30002027C840791A8E40711E8E4106439B1997
:101E4000590100D493E70134FF2C55D07149012288
:101E50001A400B405B08134389E7013A002AB1D0CE
:101E6000FF2CA4D183E7002E00D180E7013900299F
:101E7000E5D0FF2CD8D17AE7002A1BD1621CD2B260
:101E8000012A4BDD9F1B7A0123D5F71A0D1C9EE713
:101E900000237FE75F4BA41A3B4068E7002946D147
:101EA000611CC8B2012829DDFF2924D0F3185B0882
:101EB0000C1C5CE7002C13D0FF2818D08024E4040D
:101EC000524223431B2A4DDD0123F31A041C0D1C2F
:101ED00079E7002F00D07AE70023002200248EE764
:101EE000002B3BD0D243002AEFD0FF28EAD1331C8D
:101EF000FF240D1C3BE7FF24002380E7002C5CD16E
:101F0000002B00D180E0002E00D130E79B19580152
:101F100000D42CE73F4A0124134028E7002C15D1B8
:101F2000002B40D1002E63D0331C0D1C1FE7002C6A
:101F300021D1002B54D0C943002904D0FF284CD014
:101F40001B2958DD01239B19041C79E7002B19D1AB
:101F5000002E48D0331C0D1CFF2408E7331C041C42
:101F60000D1C04E71C1C2025D440AA1A93405A1EBD
:101F700093412343A9E7FF282FD08024E40449425A
:101F80002343DDE7FF24002E00D1F0E68022DB08AA
:101F9000D203134204D0F608164201D1331C0D1CA3
:101FA000DB00FF24E3E6002E00D1E0E69A1B50019F
:101FB00000D420E7F31A0D1CD9E6002B0DD0FF2426
:101FC000002E00D1D3E68022DB08D2031342E7D0F3
:101FD000F6081642E4D1331CE2E7331CFF24C6E6C0
:101FE000331C041CC3E6802300229B04FF2406E765
:101FF000231C002203E71C1C2027CC40791A8B40AD
:10200000591E8B4123439EE7331CB0E6012616E799
:102010000126D7E6FFFFFFFB4A02430270B55C0AC8
:10202000550A43004A001B0EC60F120EC90FFF2BA4
:1020300005D0FF2A08D0012093420BD070BD0120AB
:10204000002CFBD1FF2AF6D10120002DF6D1012072
:102050009342F3D1AC42F1D18E4205D0002BEDD1A9
:10206000201C441EA041E9E70020E7E74A024302A2
:10207000F0B55C0A550A43004A001B0EC60F120E4B
:10208000C90FFF2B31D0FF2A34D0002B16D160426C
:1020900060418446002A14D0002820D18E4217D1F6
:1020A000934215DC04DBAC4212D80020AC4212D2C1
:1020B000704270414042012318430CE0002AEDD1E8
:1020C00094466F426F416046002805D1002FE5D04D
:1020D000704201231843F0BD0020002FFBD148427D
:1020E0004841404201231843F5E7002CCBD00220A1
:1020F0004042F0E7002DC8D0F9E7C0464A0243024B
:10210000F0B55C0A550A43004A001B0EC60F120EBA
:10211000C90FFF2B27D0FF2A29D0002B10D0002A6F
:1021200015D194466F426F416046002815D00020BB
:10213000002F04D148424841404201231843F0BDDA
:10214000604260418446002AECD00028F2D18E42E1
:1021500011D0704201231843F1E7002FF7D07042ED
:1021600001231843EBE70220002CE8D1D3E702203B
:10217000002DE4D1D1E79342EBDC04DBAC42E8D89C
:102180000020AC42DBD27042704140420123184330
:10219000D5E7C046F0B55F4656464D464446F0B4D6
:1021A0004402460083B00F1C640A360EC50F002E91
:1021B00041D0FF2E22D080231B0400201C43E400CA
:1021C0007F3E82468046391C4B007F02C90F7F0A42
:1021D0001B0E8B463BD0FF2B34D0802212041743BA
:1021E000FF007F3B00215A466A40019252460A4353
:1021F0000F2A63D87A48920082589746002C3FD124
:102200000822022392469846DDE7019540460228BF
:102210002AD1019A01251540FF2300246402DB0521
:10222000600AED071843284303B03CBC904699462A
:10223000A246AB46F0BD002C27D1042001228246E5
:102240009046C0E7391C4A1E91410231CBE701217B
:10225000002FC8D0381C00F00BFF431F9F4076238F
:102260005B421B1A0021BEE7032800D1AEE0012823
:102270004FD1019842461040C5B200230024CDE75B
:102280000C2303209A4680469DE7201C00F0F0FEB8
:102290007626431F9C4076420023361A9A4698467B
:1022A00091E780240025E403FF23B7E75B463C1C4D
:1022B00001938846AAE73C1C8846A7E7250C24041E
:1022C0003A0C240C3F04F6183F0C211C231C7943C4
:1022D00053436F435543FB180A0C9B18B1469F426A
:1022E00002D980225202AD1809041A04090C5218AE
:1022F00094011B0C611E8C41920EED181443AD012C
:102300002C43230105D50122630801201440814498
:102310001C434B467F33002B2DDD600704D00F227A
:102320002240042A00D00434220103D52D4B1C4046
:102330004B468033FE2B17DD019B01251D400024F9
:10234000FF236BE78020C003044208D0074206D178
:10235000041C3C436402640A5D46FF235EE70443B9
:102360006402640AFF2359E70198A4010125640A65
:10237000DBB2054052E77E235B424A469B1A1B2B89
:1023800005DD019B01251D400024002346E7221C9A
:10239000DA404B469E339C40231C5C1EA3411343F2
:1023A000580704D00F221A40042A00D004335A01DF
:1023B00005D5019B01251D40002401232EE701982E
:1023C0009C010125640A0540002327E78027FF03BD
:1023D000019B3C43640201251D40640AFF231DE765
:1023E0006C310000FFFFFFF7F8B5C20F4302440055
:1023F0004D024800240E161C9B09000EC90FAD09A2
:10240000FF2800D183E0012779408A425CD0221A5C
:10241000002A00DC8EE000281ED1002D00D07AE0DA
:10242000580704D00F221A40042A00D00433802118
:10243000C90401221940324000293AD00134FF2C4E
:1024400000D183E09B015B0A5B02E4B2E405580A19
:10245000D20720431043F8BDFF2CE1D08021C904EE
:102460000D431B2A00DD31E1291C2020D140821AB6
:1024700095406A1E95410D435B1B5801D0D59B01C9
:102480009F09381C00F0F4FD421F974094425FDC26
:10249000141B1F231B1B3A1C9F40611C3B1CCA4082
:1024A0005F1EBB4113430024BAE7131EB8D10023BB
:1024B0000022DB08FF2C04D1002B47D08020C00372
:1024C00003435B025B0ABFE7211A002944DD0028B1
:1024D00027D0FF2CA4D08020C00405431B2900DD99
:1024E000F2E0281C2027C840791A8D40691E8D41D2
:1024F00005435B19590100D492E70134FF2C59D0F0
:10250000734901221A400B405B08134388E7002DF2
:1025100000D07AE777E7013A002AADD0FF2CA0D1AE
:102520007EE7002D00D17BE701390029E1D0FF2CA7
:10253000D4D175E7002A1BD1621CD2B2012A4BDD2F
:102540005F1B7A0123D5EF1A0E1C9AE700237BE765
:102550005F4BA41A3B4063E7002946D1611CC8B217
:10256000012829DDFF2924D0EB185B080C1C57E754
:10257000002C13D0FF2818D08024E40452422343B7
:102580001B2A4DDD0123EB1A041C0E1C75E7002FDE
:1025900000D076E70023002200248AE7002B3BD0FE
:1025A000D243002AEFD0FF28EAD12B1CFF240E1CB7
:1025B00036E7FF2400237CE7002C5CD1002B00D100
:1025C00080E0002D00D12BE75B19580100D427E7EC
:1025D0003F4A0124134023E7002C15D1002B40D1A2
:1025E000002D63D02B1C0E1C1AE7002C21D1002BD0
:1025F00054D0C943002904D0FF284CD01B2958DDF2
:1026000001235B19041C75E7002B19D1002D48D05C
:102610002B1C0E1CFF2403E72B1C041C0E1CFFE6C6
:102620001C1C2026D440B21A93405A1E93412343C7
:10263000A9E7FF282FD08024E40449422343DDE7A3
:10264000FF24002D00D1EBE68022DB08D2031342E9
:1026500004D0ED08154201D12B1C0E1CDB00FF2419
:10266000DEE6002D00D1DBE65A1B500100D41CE74A
:10267000EB1A0E1CD4E6002B0DD0FF24002D00D148
:10268000CEE68022DB08D2031342E7D0ED081542E4
:10269000E4D12B1CE2E72B1CFF24C1E62B1C041CFD
:1026A000BEE6802300229B04FF2402E7231C0022B5
:1026B000FFE61C1C2027CC40791A8B40591E8B4109
:1026C00023439EE72B1CABE6012512E70125D3E649
:1026D000FFFFFFFB4302590A4300C20F1B0E0020FD
:1026E0007E2B0DDD9D2B0CDC802000040143952BFF
:1026F0000ADC9620C31AD9404842002A00D1081C9F
:102700007047034BD018FBE7963B9940F4E7C0466F
:10271000FFFFFF7F70B5041E3CD0C60F00D04442BF
:10272000201C00F0A5FC9E23251C1B1A962B0CDCFC
:10273000083884406402640ADBB2321C6402DB05A0
:10274000600AD2071843104370BD992B0ADD052299
:10275000121A211CD1400A1C011C1B318D40691E1C
:102760008D411543052801DD421F9540164C2C4034
:102770006A0704D00F221540042D00D004346101F3
:102780000CD59F23181AFF281AD0A401640AC3B2DB
:10279000321CD3E7002200230024CFE7E408FF2BFC
:1027A00004D06402640ADBB2321CC7E7002C04D0F8
:1027B0008020C00304436402640A321CFF23BDE787
:1027C000321CFF230024B9E7FFFFFFFB10B5041EF6
:1027D00033D000F04DFC9E231B1A962B09DC0838E1
:1027E00084406402640ADBB26402DB05600A1843B9
:1027F00010BD992B0ADD0522121A211CD1400A1C9A
:10280000011C1B318C40611E8C411443052801DDE5
:10281000421F9440144A2240610704D00F210C400B
:10282000042C00D0043251010AD59F23181AFF2826
:1028300016D09401640AC3B2D6E700230024D3E77C
:10284000D208FF2B03D05402640ADBB2CCE7002A83
:1028500006D08024E40314436402640AFF23C3E720
:10286000FF230024C0E7C046FFFFFFFBF0B556463C
:1028700044465F464D46F0B41F1C0B031B0B9846A5
:102880004B0087B0041C81465B0DC80F161C9A468E
:102890000090002B51D06A4B9A4531D0802241469E
:1028A00052030A43630FD2001A43664B9046002539
:1028B000E20091469A44002402953B031B0B9B4681
:1028C000FD0F7B00311C5B0D019560D05C4A93428B
:1028D00054D08021584649030143720FC900114367
:1028E000584A8B469B18F1000020009A04436A4026
:1028F00003920F2C00D9ADE0534EA4003459A746E3
:10290000404604436ED100210225082488468946AA
:102910000295D2E7009C0298C346494601940228DA
:1029200064D0032800D1ABE2012800D038E2019A3C
:10293000002402400025A14660E0434623434AD0DC
:102940004046002800D1C0E100F092FB031E272B77
:1029500000DDB3E128210D1A211C083B4246E94065
:102960009A400D1C1543221C9A40A8469146374BAD
:1029700000251B1A9A46002402959EE75A461643E4
:102980000320002EB1D1B34600210220ADE75A4604
:1029900032431BD05B46002B00D18AE1584600F041
:1029A00067FB272800DD7DE12822171A011C321C55
:1029B00008395B46FA408B40171C1F43331C8B4081
:1029C000BB46191C214B1B1A00208EE70027BB4673
:1029D0000021012089E7002001250424804681464A
:1029E00002956AE703250C24029566E7019C03948F
:1029F000039D01222A400024114DA1460020002100
:102A00002403260B0C0D2405114B34432D052340C4
:102A10002B435B005B08D207191C4846114307B0E3
:102A20003CBC90469946A246AB46F0BD00228024AD
:102A300024039146024DE1E700240025A146DDE78D
:102A4000FF07000001FCFFFFAC3100000DFCFFFFA1
:102A5000FFFF0F805546ED1A0495D84500D953E184
:102A600000D14EE1049C0025013C4E4604944746AB
:102A7000A946584603020C0E1C430902250C2304E8
:102A80001B0C0091381C291C0193FFF7B7F8019922
:102A900083464143381C8A46291CFFF7F3F8330C60
:102AA000090419438A450CD95B460919013B8C423C
:102AB00000D947E18A4500D844E1022252429344BA
:102AC00009195346CB1A181C291C9846FFF796F88B
:102AD000071C0198291C784382464046FFF7D2F82C
:102AE00036040B04360C33439A4509D91B197A1E58
:102AF0009C4200D924E19A4500D821E1023F1B19EC
:102B00005E4632041743380CBB46009E009F514678
:102B10003F0C32045B1A5946BA46120C0F043F0CA4
:102B2000904651467A434F4341464143564670438F
:102B3000CF19160CBE19B14202D980277F02C019E5
:102B4000310C12043604120C4018B618834200D21D
:102B5000C4E000D1BEE0191A4846861BB145BF410A
:102B60007F42CF1BA74200D113E1291C381CFFF77D
:102B700045F8019902904143381C8946291CFFF70A
:102B800081F8330C0904194389450CD9029B0919B2
:102B9000013B8C4200D9FFE0894500D8FCE0029F50
:102BA0000919023F02974F46CF1B381C291C059775
:102BB000FFF724F8071C0198291C784381460598E3
:102BC000FFF760F836040904360C0E43B14509D905
:102BD00036197B1EB44200D9E0E0B14500D8DDE0F3
:102BE000023F3619029D4946761A290439430B04DF
:102BF00057460A0C1B0C40464546584355437B43F9
:102C00007A43EB18070CDB199D4202D980256D022F
:102C100052191D0C00041B04000C52191B1896427B
:102C200035D300D1FCE001231943049E994FF519D7
:102C3000002D00DCA1E0480709D00F230B40042B36
:102C400005D00B1D8B42894149428B44191C5A46C1
:102C5000D20107D5904B5C46049E80271C40FF00A4
:102C6000A346F5198D4B9D427ADD039C012222403B
:102C700000248B4DA146C1E6802424034746274209
:102C80004CD13C432403240B009A854DB6E63619FB
:102C9000481EB4425ED9011C9642C4D1009E9E4299
:102CA000C1D1C2E7031C283B311C99408B4600214F
:102CB00088E6301C00F0DCF9203072E6283B211C4D
:102CC000994000228846914651E6201C00F0D0F938
:102CD00020303BE60021B14500D33DE7009F5A4636
:102CE000B944B945BF417F423F19FB18013A9C42A4
:102CF0001ED2984200D97EE000D1B5E0191A934661
:102D00002AE7894500D8ADE6484646464246770858
:102D1000D3074608C0071E438146AAE6584620420C
:102D200012D1044324032A1C240B89465C4D65E61A
:102D3000A342E3D1009F4F45DBD9211A93460BE70D
:102D4000171CDDE69B46BCE63C432403240B009A9B
:102D5000534D53E6B24259D800D18AE0011C62E7D4
:102D60005F46C9087B07039E0B437C026D05012269
:102D70009946240B6D0D324040E64A4B049FDB1B05
:102D8000382B10DD039C0122224000240025A1469F
:102D900034E60121494248E7029304E71F1C21E77A
:102DA000019C039441E71F2B40DC3F48049F0C1C0F
:102DB0003A1858469140DC40904020430A1C511E6E
:102DC0008A41011C11435A46DA40131C480709D0B6
:102DD0000F220A40042A05D00A1D8A42894149422D
:102DE0005B18111C1A0234D5039C012222400024D6
:102DF0000125A14602E6009F02214942B9448B44C5
:102E0000B945894149420919CB18A4E6009D881E9D
:102E10006900A942AD416D422C19361900913AE77B
:102E2000002B00D033E70024009437E71F4A049CAE
:102E30005D46121BD5402A1C202B1FD01C4E5F461E
:102E4000A3199F403B1C19434B1E9941114300237A
:102E5000BCE75A07C9080A43039F91465B02012257
:102E60001C0B3A400025C9E54E45C4D893460021C5
:102E700072E6009F9F42C9D3011C0FE70023E2E7DF
:102E8000802424035F463C432403240B019A894693
:102E9000034DB3E5FF030000FFFFFFFEFE07000048
:102EA000FF07000002FCFFFF1E040000E2FBFFFF23
:102EB0003E04000043001B0E5A1C4102D2B270B502
:102EC0004C0AC50F012A17DDE02292006407090BA6
:102ED0009818002200231E0D221C34050C431B49A8
:102EE000400540082140014349004908ED070B1CFB
:102EF0002B43101C191C70BD002B15D1002C1CD0AD
:102F0000201C00F0B5F80A281ADC0B21091A231C32
:102F1000CB40191C031C15339C400D4B0903181A98
:102F20004005090B400DD4E7002C03D06407090BC2
:102F30000848CEE707480021CBE700200021C8E77A
:102F4000011C0B398C40211C0024E6E7FFFF0F8099
:102F500089030000FF070000F0B54B000D03420F8E
:102F60005B0D6D0A15435A1C5205CC0FC600520D5D
:102F7000012A27DD394FDA19FE2A1ADC002A35DD4D
:102F80008001ED00431E98412843760F30434307EC
:102F900004D00F230340042B00D004308021C90447
:102FA000014027D00132FF2A1DD083015B0AD1B234
:102FB00001E0FF2100235802C905400AE407084345
:102FC0002043F0BD002B06D1354311D10021002054
:102FD00043025B0AEFE72E43EBD08020ED00800434
:102FE0002843FF22D3E7FF210023E4E717320DDA5D
:102FF00005200022C008D1B2FF2AE9D10028D9D08B
:103000008023DB0303435B025B0AD4E7802214497D
:1030100012041543C91A1F290DDC124A371C9B18CC
:10302000281C9F4098403B1C5A1E93411843CE4099
:1030300030430022ABE70C4F2A1CFF1AFA40171C42
:10304000202909D0094A98188540281C3043461E7B
:10305000B041384300229AE70020F7E780FCFFFFE9
:103060009E03000082FCFFFF7E030000A2FCFFFF26
:103070001C2101231B04984201D3000C10391B0AA8
:10308000984201D3000A08391B09984201D300096C
:10309000043902A2105C40187047C04604030202C3
:0C30A00001010101000000000000000020
:1030AC002E000D0A001F1C1F1E1F1E1F1F1E1F1E81
:1030BC001F000100000400000000015759616C0062
:1030CC00000000003B310000510E00000000000029
:1030DC000400010040310000590E00000000000007
:1030EC000000010049310000110A0000000004003A
:1030FC0008000000000000000000000000000000BC
:10310C000000000048544D004A5047004749460013
:10311C00504E4700435353004A530042494E00540B
:10312C0058540049434F00424D50003F3F3F005719
:10313C00646F67006C6F77506F77657200597461BC
:10314C00736B000010278813C409E2047102990004
:10315C00D0009C004E0034001A000D000C00000042
:10316C00BC220000B6220000B6220000AC220000F7
:10317C000C2200000C220000A2220000AC22000055
:10318C000C220000A22200000C220000AC22000045
:10319C000A2200000A2200000A2200004423000038
:1031AC00542A0000F0290000382A00001E290000D3
:1031BC00382A00002C2A0000382A00001E290000A2
:1031CC00F0290000F02900002C2A00001E29000024
:1031DC00142900001429000014290000782C000088
:0731EC00FF040101B207011D
:0400000300000410E5
:00000001FF
